:020000040800F2
:100000004808002039020008FF2200085B21000890
:10001000FD220008A50E0008812400080000000051
:1000200000000000000000000000000003230008A2
:10003000790F0008000000000123000805230008D4
:10004000530200085302000853020008530200083C
:10005000530200085302000853020008530200082C
:10006000530200085302000853020008530200081C
:10007000530200085302000853020008530200080C
:1000800053020008530200085302000853020008FC
:10009000A90E00085302000853020008530200088A
:1000A00053020008AD230008530200085302000861
:1000B00053020008530200085302000853020008CC
:1000C00053020008530200085302000853020008BC
:1000D00053020008530200085302000853020008AC
:1000E000530200085302000853020008530200089C
:1000F000530200085302000853020008530200088C
:10010000530200085302000853020008530200087B
:10011000530200085302000853020008530200086B
:10012000530200085302000853020008530200085B
:10013000530200085302000853020008530200084B
:10014000B50E0008530200085302000853020008CD
:10015000530200085302000853020008530200082B
:10016000530200085302000853020008530200081B
:100170005302000853020008530200080000000068
:10018000530200085302000800F002F800F044F89F
:100190000AA090E8000C82448344AAF10107DA45E2
:1001A00001D100F039F8AFF2090EBAE80F0013F0F0
:1001B000010F18BFFB1A43F0010318476423000026
:1001C00084230000103A24BF78C878C1FAD85207B7
:1001D00024BF30C830C144BF04680C6070470000C1
:1001E0000023002400250026103A28BF78C1FBD840
:1001F000520728BF30C148BF0B6070471FB502F0DF
:1002000077F99DE8030000F01FFC00F011F91FBD15
:1002100010B500F076F910BD00F0D9F91146FFF7DE
:10022000EDFF02F04BF900F0DDFB03B4FFF7F0FF48
:1002300003BC00F09BFD00000948804709480047C7
:10024000FEE7FEE7FEE7FEE7FEE7FEE7FEE7FEE786
:10025000FEE7FEE704480549054A064B70470000E3
:100260009D2300088901000848020020480800205A
:10027000480400204804002053EA020C00F0698082
:100280002DE9F04B4FF00006002B1FBFB3FA83F5AA
:1002900003FA05F424FA05F65E4012BF1643B2FADB
:1002A00082F502FA05F4C5F120051EBF22FA05FC0D
:1002B00044EA0C04203556EA044C4FEA144418BFB3
:1002C000641C4FF000084FF00009904271EB030CE2
:1002D00039D3002919BFB1FA81F701FA07F6B0FA4C
:1002E00080F700FA07F6C7F120071EBF20FA07FCC7
:1002F00046EA0C062037B6FBF4FCA7EB0507103FD7
:1003000007F01F0BCBF120060CFA0BFB2CFA06F6BC
:1003100044BFB3460026202FA4BF5E464FF0000B1B
:100320005BEA060C08BF4FF0010B19EB0B09ABFBA6
:10033000027C48EB0608C01B06FB02CC0BFB03CC7F
:1003400071EB0C01C1E70B46024641464846BDE849
:10035000F08B13B54FF000004FF00001AFF30080B9
:10036000BDE81C40704700000FB4044910B503AA53
:10037000029800F02FF810BC5DF814FB3C0100203F
:100380004FF0000200B5134694469646203922BF2E
:10039000A0E80C50A0E80C50B1F12001BFF4F7AF79
:1003A000090728BFA0E80C5048BF0CC05DF804EB5B
:1003B000890028BF40F8042B08BF704748BF20F8C9
:1003C000022B11F0804F18BF00F8012B70477047C7
:1003D00070477047074B70B50D467B4400F011F82D
:1003E0000446284600F020F810B14FF0FF3070BDF1
:1003F000204670BDC520000001694A1C02610878D2
:10040000704700B58FB0CDE9013100210591054954
:100410007944CDE903101146684600F024F90FB085
:1004200000BD0000E5FFFFFF007B00F0800070478B
:1004300010B542485421FFF7A3FF41485421FFF76C
:100440009FFF40485421FFF79BFF3F493B483C4AF0
:100450003F4B08603D490A603A491960531C0365E7
:10046000481C1065012008653B48344A39A178448E
:1004700000F01CFA20B9384878440A3800F0BBFA7A
:1004800037482F4A35A1784400F010FA20B9344893
:1004900078440A3800F0AFFA32482A4A2FA178444B
:1004A00000F004FA20B92F4878440A3800F0A3FA83
:1004B00040232248DC000021224600F0D3F920B17D
:1004C00025487844543800F096FA1D4822464023C7
:1004D000002100F0C7F920B121487844543800F0D9
:1004E0008AFA184822461023002100F0BBF90028A0
:1004F00006D01C487844BDE81040563800F07BBA5E
:1005000010BD104870B5006D20F001040B4800F0DC
:1005100043FA0B4800F040FA0A4800F03DFA09E0BF
:10052000206D20F00105204600F036FA204600F04C
:1005300073F82C46002CF3D170BD0000E8000020B9
:100540003C01002090010020140000201800002031
:100550001C00002072000000A020000077000000B6
:100560008C200000782000000EB5CDE9000100F0DD
:10057000DDFB029069460120ABBE0EBD08B56946A1
:1005800000900220ABBE08BD1FB58DE8070069468C
:100590000520ABBE04B010BD1FB58DE80F00694645
:1005A0000620ABBEF6E708B5694600900920ABBE51
:1005B00008BD1CB5CDE9000169460A20ABBE1CBDD3
:1005C000704708B5694600900C20ABBE08BD754663
:1005D00000F018FAAE4605006946534620F00700C1
:1005E000854618B020B5FFF735FEBDE820404FF036
:1005F00000064FF000074FF000084FF0000B21F00D
:100600000701AC46ACE8C009ACE8C009ACE8C009D9
:10061000ACE8C0098D46704770B50446051F00F070
:10062000F7F90068002C14BF446870BD002C18BF97
:10063000AC423CBF20466468F8D301680A18AA425D
:1006400018BF456003D12A68054611440160286837
:100650004119A1421CBF6C6070BD6168696021686E
:100660000844286070BD2DE9F04106460024D6E913
:100670000170F5688046304603E04146B847641C87
:100680003046A8470028F8D12046BDE8F0812DE982
:10069000F04705460C46C86820F4201040F480005E
:1006A000C860800602D5084600F0FFFAE06841F213
:1006B00082014FF0FF390140022903D0204600F0AB
:1006C0009DFAB5E000F42041B1F5004F0FD1C00311
:1006D00006D56168E06A884200D80846606006E096
:1006E0002069E06260606069FFF76BFFA061A0684D
:1006F0000022EEB200280DDAE1688B050AD4C0436F
:10070000A06041F490302260E0606068411C61604C
:100710000670A5E0E0689046226040F40050E0607A
:10072000206968BB6069FFF73EFF012704F12405DB
:10073000A0B1A08910F4407F08D0E06900F0B3F9BF
:10074000206118B1E06840F4006016E0E7612561BF
:10075000E06820F4407040F480600EE0E06900F052
:10076000A2F900282061F1D0E06840F4006010F4A4
:10077000407FE06002D140F48070E06020696060FA
:10078000E06825696FF0010AC1051FD56168E06A5C
:10079000884200D80846411B04D02246284600F073
:1007A00037FAF0BBE068010203D5E562C4E90158FD
:1007B00054E0691CE1626160E16940F48030491EE7
:1007C000C4E9021030462E70BDE8F087010202D560
:1007D00000F480320AE06068411C61600670E068E5
:1007E0000A2E40F48030E06006D00022E16A6068A2
:1007F000814203D90B4602E00122F7E70346A789AD
:100800005B1B7F0503D4E7699F4200DDE2B18142B3
:1008100000D80146E5620F1AC4E90158002B09DD32
:1008200000E005E022461946284600F0F1F908B13B
:100830004846C9E747B1A069E5626560C01BA06191
:10084000E06840F01000E060E068000208D56168F0
:10085000A069E562491B08446560A0615046B3E7A2
:100860003046B1E770B5C468A50713D0650211D44E
:10087000B2F5807F09D0B2F5007F06D0B2F5806F67
:1008800008D1012300F1240106E05D1E6FF07F46D0
:10089000B54201D3012070BD0161C361416024F400
:1008A00070611143C160002070BD00002DE9F0416E
:1008B0000C4607461646104600F06EF82078611C7C
:1008C00061280AD0722802D077283CD102E00125A5
:1008D000002405E00225042402E0082448F2020571
:1008E00011F8010B2B2806D0622809D011F8010C51
:1008F00074280AD00BE045F0030544F00204EFE74A
:1009000045F0040544F00104EAE744F010043846D9
:100910002146FFF729FE411C15D00021316171608D
:100920004FF40071F560F1617061200704D5304625
:100930000222002100F0E6F8306D40F00100306541
:100940003046BDE8F0810020FBE72DE9F0410D467F
:100950000646104C206DC10704D0410804D020F099
:100960000104F7E722460EE0542000F09CF807004F
:100970000ED0206D47F00101084354212065384610
:10098000FFF7FEFC3A4629463046BDE8F0418DE7C8
:100990000020D6E7E80000202DE9F04704464FF09C
:1009A00000094FF0FF37C568D4E90486A80707D0CF
:1009B000204600F057F93046FFF7E0FD002802DA44
:1009C0003846BDE8F087280502D54046FFF724FEEB
:1009D0004C212046FFF7D4FC206D20F0010020655B
:1009E0004846EEE710B50446AFF300802046BDE868
:1009F0001040FFF71ABC10B500F07EF9BDE81040BA
:100A000000F074B900487047E4010020704700000E
:100A100000487047EC0100207047704770477047EE
:100A200038B504460A4600206946AFF30080002826
:100A300008BF38BD02460099204600F0A4F9012005
:100A400038BD012000F0F3B9F8B5AFF300800546DA
:100A500000200C46102000BF0646A819A0420DD960
:100A6000324669460020AFF30080070008BF00F05F
:100A7000DEF90098A04218BF0546C419FFF7C8FF69
:100A800005600746F01D20F007004619284600F0D3
:100A900073F9B44208BFF8BDA21B31463868BDE8FF
:100AA000F84000F070B970B50646FFF7B1FF056871
:100AB00006F10B0020F00704B4429CBF002070BD7B
:100AC0002B466A68BAB11068A04210D304F108013D
:100AD00088423CBF5068586007D351681019416084
:100AE0001168091B016058601460101D70BD134629
:100AF0005268002AE7D121462846FFF791FF0028D7
:100B0000DED170BD2DE9F041044616460D46476919
:100B1000007B80072ED03846FFF745FD50BB3EB323
:100B2000012E02D0022E25D104E0204600F045F926
:100B300005441DE03846FFF744FDE168002841F018
:100B40001001E16005DA204600F058F80120BDE808
:100B5000F081C9030BD56268E16A914200D8114661
:100B6000A26911442269891A814200DD08460544C0
:100B7000002D01DA0220EAE7E16A6068E26881425A
:100B800006D29103E06203D522F4003141F0100255
:100B9000A6690027AE4213DCE16A814201D90B4607
:100BA00000E0034603EB060C2369ACEB030CAC45F9
:100BB00006DD814201D98C4600E084469C4505D182
:100BC000A760276042F02000A5620DE0AD1BE6693A
:100BD000AE1B8142A66000D90846C01A281A2060C0
:100BE0005819606022F0200003490840E0600020AE
:100BF00084F84870ABE70000BFCFD7FFC16821F48D
:100C0000001141F08001C1600021816001607047E6
:100C10002DE9F047814614460E464FF0FF38324822
:100C2000D5685769054209D03846A169FFF7C1FC6C
:100C3000002811DB2C48C0430540E5602B463246B6
:100C400049463846FFF7A0FCA16920F00042B21ADD
:100C500011440028A16103D02046FFF7CFFF404692
:100C6000BDE8F08770B504460569C06A61688842CE
:100C700000D80846E16821F42011E160C90312D5CB
:100C8000A84208D02246411B2846FFF7C1FF10B1F9
:100C90004FF0FF3070BD0020E562C4E90150E0680C
:100CA00020F48030E060002070BD10B50446C068BC
:100CB00020F02000E060A16AA06988420DD02046A3
:100CC000FFF7D0FFE06820F4405040F01000E060F3
:100CD000A06AA0612069E062606044F24001E068BF
:100CE0008843E06010BD000010000200002801D021
:100CF00000F03CB87047000010B5014602A000F0BB
:100D00007DF8012010BD000053494752545245441C
:100D10003A2052656469726563743A2063616E2794
:100D200074206F70656E3A200000000010B5431CFF
:100D300002E010F8011B71B18107FAD14FF00132C6
:100D400002C88C1A8C4314EAC211F9D0C01A0A06E0
:100D500003D0C01E10BDC01A10BD0A0401D0801EF1
:100D600010BD0902FCD0401E10BD00000149182032
:100D7000ABBEFEE72600020000210160C0E90110C1
:100D8000704710207047034640688C46002818BF03
:100D900088423CBF03464068F8D31868184488422C
:100DA00007D00CF1030020F00700001D411A521A71
:100DB0000146081D0A60FFF72FBC10B50146C26846
:100DC000900703D0900607D5886A0AE000F03EF845
:100DD00001210160881E10BD8B69486818440B69A9
:100DE000C01A91F848301BB191F84910401A10BD53
:100DF0001103FCD50028FADD401E10BD70B5054674
:100E00000C460A2000E06D1C00F018F835B1287877
:100E10000028F8D102E0641C00F010F814B120782A
:100E20000028F8D1BDE870400A2000F007B810B5DE
:100E300000F010F8BDE81040FFF758BF08B569464C
:100E40008DF800000320ABBE08BD000000487047CD
:100E5000E401002010B5012805D0002103A0FFF710
:100E6000CDFF012010BD09A1F8E70000534947520A
:100E7000544D454D3A204F7574206F66206865616A
:100E800070206D656D6F7279000000003A20486532
:100E90006170206D656D6F727920636F727275700D
:100EA00074656400FEE70000014800F066B90000C8
:100EB00050000020014800F060B9000078000020D8
:100EC0000EB51248082102AB01614FF44571016073
:100ED00041F214314160042181600021C1600CA104
:100EE0006A46D1E90001CDE90001084901F130006D
:100EF00000F057F8002807D000224FF40071064890
:100F000000F08AFC00F039F80EBD0000200000203F
:100F10003132333435363738001802400EB51248B6
:100F2000082102AB016140F21531016041F2153137
:100F30004160042181600021C1600CA16A46D1E9B1
:100F40000001CDE90001084901F1400000F029F855
:100F5000002807D000224FF40071064800F05CFC26
:100F600000F00BF80EBD00003800002061626364E1
:100F70006566676800180240704772B6FEE790F831
:100F80002020012A07D0022A05D0416A41F480219D
:100F9000416201207047006842690A4342610020B3
:100FA0007047F0B590F820500468A468012D05D072
:100FB000022D03D0416A41F4802153E014F0406FC8
:100FC00001D1E5004BD5C4F30164022C03D9416A79
:100FD00041F4000146E00125A5401D608D684FF4F5
:100FE000C0739DB1CE6835434E6845EAC6050668B4
:100FF00003EB0417F5514FF4C275076805EB0415B0
:101000000E697E51097D012905D009E00E88CD6861
:1010100045EA4655EBE701684E5946F480764E5155
:101020001179D2F805504FF4C67641EA05250168DA
:1010300006EB04168D511178D2F801204FF4C475D7
:1010400041EA0221026805EB04155151006803EBE7
:101050000411425842F0010242500020F0BD416AA2
:1010600041F4001141620120F0BD000010B590F87C
:101070002020012A07D0022A05D0416A41F48021AC
:101080004162012010BD3B48D0F8002242F001022D
:10109000C0F80022D0F8002222F47C52C0F80022CE
:1010A000D0F800224B6A42EA0322C0F800220A7DEF
:1010B00002F01F0301229A40D0F81C329343C0F87B
:1010C0001C32CB69B3B9D0F80C329343C0F80C3260
:1010D0008C894B6864F31F434C6900EBC404C4F86B
:1010E00040320C890B6864F31F434C6900EBC40465
:1010F000C4F84432CB69012B16D1D0F80C3213431B
:10110000C0F80C320C884B6864F31F434C6900EB49
:10111000C404C4F840320C89CB6864F31F434C69A3
:1011200000EBC404C4F844328B69002BD0F80432BD
:101130000ED01343C0F804320B69002BD0F81432E0
:1011400008D01343C0F81432096A012904D008E01A
:101150009343EFE79343F5E7D0F81C121143C0F82F
:101160001C12D0F8001221F00101C0F8001200207A
:1011700010BD00000064004070472DE9F05F054697
:10118000006800244669D0F804908768D0F80CB055
:10119000D0F810A0D0F81880F10748D0F90714D083
:1011A00001218160B80703D5284600F024FA0CE03D
:1011B000780702D54FF4006407E0380702D54FF4F2
:1011C000805402E0284600F015FAF80516D5296883
:1011D0004FF480708860B80503D5284600F00DFAFA
:1011E0000CE0780502D544F4005407E0380502D538
:1011F00044F4804402E0284600F0FEF9F80316D5D6
:1012000029684FF480308860B80303D5284600F081
:10121000F6F90CE0780302D544F4004407E0380303
:1012200002D544F4803402E0284600F0E7F93007A4
:1012300007D55FEACB6004D52968102044F4007418
:10124000C86070074FF0080707D55FEA0B7004D538
:101250002868C760284600F09BF9B00706D52868C3
:10126000C068800702D0284600F093F9700607D5C1
:101270005FEACA6004D52968102044F480640861DC
:10128000B00607D55FEA0A7004D5286807612846CA
:1012900000F080F9F00606D528680069800702D0C2
:1012A000284600F078F9B00308D55FEAC96005D593
:1012B000296810204860284600F06EF9F00307D531
:1012C0005FEA097004D528684760284600F098F95D
:1012D000300446D55FEA497040D5F00504D55FEA91
:1012E000C87001D044F00104B00504D55FEA8870ED
:1012F00001D544F00204700504D55FEA487001D5B9
:1013000044F00404300529D518F0700F26D008F0F9
:101310007000402815D006DC102809D020280AD0FB
:10132000302816D10AE050280ED0602811D10EE0E6
:1013300044F008040DE044F010040AE044F02004F6
:1013400007E044F0400404E044F0800401E044F489
:1013500080742868816921F0700181612968042006
:101360004860002C05D0686A204368622846FFF771
:1013700003FFBDE8F09F70B5040003D094F820008F
:1013800010B104E0012070BD204600F081F8206813
:10139000016841F00101016000F044FA05460526AC
:1013A00004E000F03FFA401B0A2811D8206840688A
:1013B000C007F6D02068016821F00201016000F04A
:1013C00031FA05460BE000F02DFA401B0A2806D939
:1013D000606A40F40030606284F82060D2E72068E0
:1013E00040688007EFD4207E0128206801683DD046
:1013F00021F080010160607E01282068016838D0FA
:1014000021F040010160A07E01282068016833D0EE
:1014100021F020010160E07E0128206801682ED0C3
:1014200041F010010160207F01282068016829D067
:1014300021F008010160607F01282068016824D044
:1014400021F004010160D4E902010843D4E9041247
:10145000114308436168491E08432168C8610020A0
:101460006062012084F82000002070BD41F08001FE
:10147000C0E741F04001C5E741F02001CAE721F093
:101480001001CFE741F00801D4E741F00401D9E7AA
:10149000F0B587B0044614216846FEF771FF374B5C
:1014A0003748DFF8D4E01968D4F800C0344A022580
:1014B0000326092710300024491CF44524D1196063
:1014C000012907D1016841F000710160006800F056
:1014D00000700590106840F001001060106802ABC9
:1014E00000F0010005904FF4C050CDE9000583E8FD
:1014F000D0006946234800F097F8002211461420D6
:1015000000F018FA142033E0DFF87CE0F44531D124
:10151000D0F800C04CF0806CC0F800C0D0F800C01B
:1015200001290CF0806CCDF814C0196007D1016856
:1015300041F000710160006800F0007005901068D3
:1015400040F002001060106802AB00F0020005904D
:101550004FF44050CDE9000583E8D00069460B48C0
:1015600000F062F800221146402000F0E3F940202C
:1015700000F0D2F907B0F0BD006400400000002088
:101580003038024000000240006800400004024081
:1015900070477047704770477047000070B5044649
:1015A00090F82000012804D0606A40F400206062B6
:1015B00018E0022084F820002068016821F0010171
:1015C000016000F02FF905460EE000BF00F02AF997
:1015D000401B0A2808D9606A40F400306062052088
:1015E00084F82000012070BD20684068C007EDD15C
:1015F000606270BD704770477047704770477047B2
:101600007047000070B5044600F00CF90546601CF8
:1016100002D004480078044400F004F9401BA042C2
:10162000FAD370BD040000202DE9F84FDFF8BCA10B
:10163000002201250AF1040B03264FF00F090BF1DC
:10164000040E00BF0B6805FA02F42340A34270D1D8
:101650000F7907F00307012F01D0022F16D18768F9
:101660004FEA420806FA08FC27EA0C07D1F80CC03A
:101670000CFA08FC4CEA070CC0F808C04768A743FE
:101680000C79C4F3001494403C4344600C79E44367
:10169000A4070AD0C4684FEA420C06FA0CF7BC4310
:1016A0008F6807FA0CF72743C7600C7904F003042E
:1016B000022C12D1D40800EB840CDCF82040570730
:1016C000FF0E09FA07F824EA0804D1F8108008FA96
:1016D00007F848EA0408CCF8208004684FEA420C76
:1016E00006FA0CF7BC430F7907F0030707FA0CF76B
:1016F000274307604C6814F4403F70D03C4C276887
:1017000047F480472760246822F0030704F48044EC
:101710000094384C07EB040CDCF8084897074FEAB4
:10172000177809FA08F7BC43334FB84202D10027B3
:1017300024E054E0314FB84201D101271EE0304F80
:10174000B84201D1022719E02E4FB84201D1032738
:1017500014E02D4FB84201D104270FE02B4FB842BF
:1017600001D105270AE02A4FB84201D1062705E03A
:10177000284FB84201D1072700E0082707FA08F7E9
:101780002743CCF80878DAF800405746D1F804C06F
:101790009C435FEACC3C00D51C433C60DBF8004036
:1017A0005F46D1F804C09C435FEA8C3C00D51C43E3
:1017B0003C60DEF800407746D1F804C09C435FEA05
:1017C000CC2C00D51C433C60084F0C373C68D1F84A
:1017D00004C09C435FEA8C2C00D51C433C60521C27
:1017E000102AFFF42FAFBDE8F88F0000003C014045
:1017F0004438024000300140000002400004024032
:1018000000080240000C0240001002400014024098
:1018100000180240001C02400AB1816170470904AF
:10182000FBE70000014880687047000004000020CA
:1018300002488168027811448160704704000020EA
:101840000B4810B5016841F400710160016841F472
:1018500080610160016841F480710160032000F043
:1018600089F80F2000F006F800F03EF8002010BDC7
:10187000003C024010B5014688B00022192000F05B
:1018800059F8192000F048F813480024016841F085
:1018900001010160006805A900F00100069068469A
:1018A00000F014F900F032F90C494000B0FBF1F1FE
:1018B0000C480B4A491E026040F2E732C0E903249B
:1018C000C0E9011400F01AFB10B1012008B010BDEE
:1018D000044800F041FBF9E74438024040420F0061
:1018E00000000140A00000200A4808B5016841F44A
:1018F00080410160006800F4804000900548001FAE
:10190000016841F080510160006800F08050009053
:1019100008BD000044380240002809DB00F01F0227
:10192000012191404009800000F1E020C0F8001141
:1019300070470000F0B40E4B1B680C46C3F3022343
:10194000C3F10705042D00D90425191D072901D26B
:10195000002300E0DB1E012606FA05F1491E2140A6
:1019600099409E40761E16403143F0BC00F089BD80
:101970000CED00E0064900F0070208684FF6FF038F
:10198000184040EA0220034A1043086070470000F4
:101990000CED00E00000FA052DE9F0470E460500C9
:1019A00065D0DFF81481D8F80000F7B200F0070026
:1019B000B04207D288F80070D8F8000000F00700A5
:1019C000B04254D128683D4C810712D5400703D559
:1019D000206840F4E05020602878000703D5206894
:1019E00040F4604020602068A96820F0F0000843BF
:1019F00020602878C0072DD0304968680839012850
:101A000012D0022813D0032811D0096889070029B1
:101A10002DDA216821F0030101432160FFF702FF65
:101A2000814641F2883A0EE009688903EFE70968C8
:101A30008901ECE7FFF7F6FEA0EB0901514502D959
:101A40000320BDE8F0872068696800F00C00B0EB67
:101A5000810FEFD1D8F80010404601F00701B142E4
:101A600007D90770006800F00700B04201D00120DC
:101A7000E7E72878400705D52068E96820F4E050BA
:101A8000084320602878000706D52068296920F4DB
:101A9000604040EAC100206000F048F82168084A30
:101AA000C1F30311515CC84006490860064800684C
:101AB000FFF7E0FE0020C4E7003C02400838024087
:101AC000FA24000810000020080000200F22026005
:101AD0000C4A136803F003034360136803F0F00338
:101AE0008360136803F4E053C36012684FF4E0535B
:101AF00003EAD20202610448006800F007000860AF
:101B00007047000008380240003C02400448054984
:101B100000680968044AC1F34231515CC84070470B
:101B200010000020083802400A250008154810B5AA
:101B3000006810F00C02144813D04110042A0FD092
:101B4000082A0ED10F4C241F2268236802F03F029E
:101B50005B0207D52068C0F38810A0FB010106E0F6
:101B6000084610BD2168C1F38811A1FB00010023C4
:101B7000FEF782FB2168C1F30141491C4900B0FB1B
:101B8000F1F010BD083802400024F4002DE9F84FB0
:101B900004006ED02078DFF84C93C007A9F104054B
:101BA0004AD009F104000168C1F38101012908D07C
:101BB0000068C0F3810002280AD1D9F80000400271
:101BC00006D52868800337D560680028E1D033E067
:101BD0006068B0F5803F10D0B0F5A02F286810D015
:101BE00020F480302860286820F480202860606815
:101BF000A8B1FFF717FE06460DE0286840F48030D4
:101C0000F4E740F480202860F7E700BFFFF70AFE02
:101C1000801B642873D828688003F7D50CE0FFF791
:101C200001FE064605E000BFFFF7FCFD801B6428AF
:101C3000F0D828688003F7D42078DFF8AC828007DA
:101C40004FF0000A3ED5A748001D016811F00C0FA7
:101C500008D00068C0F3810002280BD1D9F8000039
:101C6000400207D42868800716D5E068012800D113
:101C700012E033E1E068B8B10120C8F80000FFF7D6
:101C8000D1FD064605E000BFFFF7CCFD801B022812
:101C9000C0D828688007F7D52868216920F0F800A7
:101CA00040EAC10028600DE0C8F800A0FFF7BAFDC7
:101CB000064604E0FFF7B6FD801B02281FD82868FF
:101CC0008007F7D42078000722D5864F87486169BE
:101CD000703771B101210160FFF7A4FD064604E0F1
:101CE000FFF7A0FD801B022809D838688007F7D5C8
:101CF0000EE0C0F800A0FFF795FD064605E082E083
:101D0000FFF790FD801B02287DD838688007F7D444
:101D10002078400768D5DFF8CCB100270BF13C0BE9
:101D2000DBF80000C0000BD4DBF8001041F080515C
:101D3000CBF80010DBF80000012700F08050009085
:101D40006B4E3068C00510D4306840F4807030604D
:101D5000FFF768FD009005E0FFF764FD0099401A69
:101D6000022850D83068C005F6D55E4EA0686C36A3
:101D700001280FD00528306810D020F00100306015
:101D8000306820F004003060A068B8B1FFF74AFD69
:101D900000900FE0306840F00100F4E740F00400EC
:101DA0003060F7E7FFF73EFD0099411A41F28830B5
:101DB000814266D830688007F4D50EE0FFF732FD27
:101DC000009007E0FFF72EFD0099411A41F288309C
:101DD000814256D830688007F4D42FB1DBF8001068
:101DE00021F08051CBF80010A069C8B33D49091D0E
:101DF0000968C1F3810102294AD00228504607D060
:101E0000C8F8600000E03CE0FFF70CFD04463BE052
:101E10004746C8F86000FFF705FD064605E000BF2D
:101E2000FFF700FD801B02282BD828688001F7D41B
:101E3000D4E907010843A16A2E4A490802EB01418F
:101E4000626A41EA8211084394F82C1040EA016169
:101E5000C9F8001001203866FFF7E4FC044606E0EC
:101E60003EE000BFFFF7DEFC001B022809D828680F
:101E70008001F7D534E000BFFFF7D4FC001B022837
:101E800002D90320BDE8F88F28688001F4D427E048
:101E90000128F7D0D9F80000E26900F480019142EE
:101EA0001CD1226A00F03F01914217D147F6C07160
:101EB000626A0140B1EB821F10D1A26A4FF0FF337A
:101EC00000F4403103EB5202B1EB024F06D194F81B
:101ED0002C1000F07060B0EB016F01D00120D1E751
:101EE0000020CFE70438024000004742800E4742FE
:101EF000007000400000FFFF7047704710B50400FD
:101F000003D094F83D0010B107E0012010BD00207F
:101F100084F83C00204600F01EF8022084F83D00C2
:101F2000211D206800F048FA012084F8460084F85A
:101F30003E0084F83F0084F8400084F8410084F8B3
:101F4000420084F8430084F8440084F8450084F893
:101F50003D00002010BD704790F83D10012901D0D0
:101F600001207047022180F83D100168CA6842F0E4
:101F70000102CA6000681149884214D0B0F1804F54
:101F800011D00F4988420ED00E4988420BD00E491D
:101F9000884208D00D49884205D00D49884202D0B8
:101FA0000C49884204D1816801F00701062903D059
:101FB000016841F00101016000207047000001400C
:101FC0000004004000080040000C004000040140F4
:101FD0000040014000180040704770B5044600689A
:101FE00001694FF00005C943890715D4C168C94389
:101FF000890711D4E91E01610120207720688069DA
:102000008007204602D0FFF7E7FF04E000F098F8D1
:10201000204600F096F8257720680169C9434907F2
:1020200017D4C168C943490713D46FF00401016193
:10203000022020772068806910F4407F204602D07B
:10204000FFF7CAFF04E000F07BF8204600F079F8C3
:10205000257720680169C943090716D4C168C943B7
:10206000090712D46FF0080101610420207720686D
:10207000C0698007204602D0FFF7AEFF04E000F001
:102080005FF8204600F05DF8257720680169C943B4
:10209000C90617D4C168C943C90613D46FF010012B
:1020A0000161082020772068C06910F4407F204635
:1020B00002D0FFF791FF04E000F042F8204600F064
:1020C00040F8257720680169C943C90708D1C1686C
:1020D000C943C90704D1891E0161204600F032F8C6
:1020E00020680169C943090609D4C168C9430906C2
:1020F00005D46FF0800101612046FFF7FDFE2068E6
:102100000169C943490609D4C168C943490605D4D0
:102110006FF040010161204600F01EF8206801695F
:10212000C94389060BD4C168C943890607D46FF037
:10213000200101612046BDE87040FFF7DEBE70BDA2
:102140007047704700680349884201D1FFF770BBB0
:1021500070470000000001407047FEE700B58BB0FB
:1021600000200121019002900390CDE90601089121
:1021700004900E2109911E49009005901B4A0A60A7
:102180000722C1E901204FF48022C1E903024FF484
:10219000A0024A61087648768876C876087748773C
:1021A0000846FFF7E8F808B1FEF7E7FE6946104871
:1021B000FEF75CFF08B1FEF7E0FE0D48FFF7EEF911
:1021C00020B10CA0FEF7D0F8FEF7D7FE0221084898
:1021D000FEF7D5FE002807D000224FF400710B480F
:1021E000FFF71AFBFEF7C9FE0BB000BD006400400C
:1021F000500000200A43414E315F537461727420D5
:102200004661696C656421210000000000180240ED
:10221000144810B5124A026000210722C0E90121CA
:102220004FF48022C0E903124FF4A002426101760C
:1022300041768176C17601774177FFF79CF808B146
:10224000FEF79BFE0748FFF7A9F9002806D006A075
:10225000FEF78AF8BDE81040FEF78FBE10BD000003
:1022600000680040780000200A43414E325F5374FA
:10227000617274204661696C656421210000000070
:1022800030B587B014216846FEF77AF81948002463
:10229000016841F010010160016801F01001059131
:1022A000016841F080010160016801F08001059141
:1022B000016841F002010160016801F0020105912D
:1022C000016841F00101016000680B4D00F0010060
:1022D0000590002218212846FFF79EFA182000904A
:1022E0000120CDE90104694628460394FFF79CF9D3
:1022F00007B030BD3038024000100240FEE7FEE774
:10230000704770477047000030B593B03021684681
:10231000FEF736F814210CA8FEF732F81D48002508
:10232000016841F080510160006800F08050119018
:102330001948016841F4804101600068022400F4FA
:102340008040119001200090000401908001CDE9AF
:10235000064008AA0420A82182E813000B906846D2
:10236000FFF714FC08B172B6FEE70CA90F2081E854
:1023700031004FF4A0500F904FF480501090052181
:102380000CA8FFF709FB002801D072B6FEE713B0D6
:1023900030BD000040380240007000400248016833
:1023A00041F470010160704788ED00E00148FFF7DB
:1023B00014BE0000A0000020F0B50268254C264D98
:1023C000264E274F274B4FF0804CA04209D0604546
:1023D00007D0A84205D0B04203D0B84201D09842FD
:1023E00004D122F0700E4A6842EA0E02A0421BD0CD
:1023F000604519D0A84217D0B04215D0B84213D0CA
:10240000984211D0184DA8420ED0184DA8420BD0BA
:10241000174DA84208D0174DA84205D0164DA84226
:1024200002D0164DA84203D122F44075CA682A434F
:102430004D6922F080022A4302608A68C2620A68FB
:102440008262A04201D0984201D109690163012151
:102450004161F0BD00000140000400400008004060
:10246000000C0040000401400040014000440140D5
:102470000048014000180040001C004000200040BF
:10248000FEE70907090E002804DB00F1E02080F8D0
:102490000014704700F00F0000F1E02080F8141DD8
:1024A00070478A68002A01DCFEF7F1B8521E8A6084
:1024B0004A68C0B2531C4B601070704786B0FFF77B
:1024C000BFF9FFF721FFFFF7DBFEFFF747FEFFF73E
:1024D0009FFE4FF4FA746846FEF7F2FC2046FFF7C1
:1024E00091F803A8FEF71AFD2046FFF78BF8F2E7F4
:1024F0004FF04070E1EE100A70470000000000004D
:1025000000000102030406070809000000000102A0
:1025100003043A7474003A7474003A74740000004E
:10252000402500080000002020000000C401000831
:10253000602500082000002028080000E0010008B5
:10254000000000000100000010000000000000007A
:102550000024F40000000000000000000000000063
:040000050800018965
:00000001FF
